{
	"data": {
		"bytecode": {
			"linkReferences": {},
			"object": "60806040527f6d79207370616365000000000000000000000000000000000000000000000000600160006101000a8154816fffffffffffffffffffffffffffffffff021916908360801c02179055507f6d6f726520737061636500000000000000000000000000000000000000000000600160106101000a8154816fffffffffffffffffffffffffffffffff021916908360801c02179055503480156100a457600080fd5b50604051610280380380610280833981810160405260408110156100c757600080fd5b8101908080519060200190929190805190602001909291905050508160008190555080600281905550505061017f806101016000396000f3fe608060405234801561001057600080fd5b50600436106100415760003560e01c80636102e02214610046578063c3e7005514610094578063e09eaa01146100c5575b600080fd5b61007c6004803603604081101561005c57600080fd5b8101908080359060200190929190803590602001909291905050506100f6565b60405180821515815260200191505060405180910390f35b61009c610123565b60405180826fffffffffffffffffffffffffffffffff1916815260200191505060405180910390f35b6100cd610136565b60405180826fffffffffffffffffffffffffffffffff1916815260200191505060405180910390f35b60008260005414801561010a575081600254145b15610118576001905061011d565b600090505b92915050565b600160009054906101000a900460801b81565b600160109054906101000a900460801b8156fea2646970667358221220075431b5e5f1962d6a09a659c2c73eda9403346f26a238ac546966a3ffe4149b64736f6c634300060c0033",
			"opcodes": "PUSH1 0x80 PUSH1 0x40 MSTORE PUSH32 0x6D79207370616365000000000000000000000000000000000000000000000000 PUSH1 0x1 PUSH1 0x0 PUSH2 0x100 EXP DUP2 SLOAD DUP2 PUSH16 0xFFFFFFFFFFFFFFFFFFFFFFFFFFFFFFFF MUL NOT AND SWAP1 DUP4 PUSH1 0x80 SHR MUL OR SWAP1 SSTORE POP PUSH32 0x6D6F726520737061636500000000000000000000000000000000000000000000 PUSH1 0x1 PUSH1 0x10 PUSH2 0x100 EXP DUP2 SLOAD DUP2 PUSH16 0xFFFFFFFFFFFFFFFFFFFFFFFFFFFFFFFF MUL NOT AND SWAP1 DUP4 PUSH1 0x80 SHR MUL OR SWAP1 SSTORE POP CALLVALUE DUP1 ISZERO PUSH2 0xA4 JUMPI PUSH1 0x0 DUP1 REVERT JUMPDEST POP PUSH1 0x40 MLOAD PUSH2 0x280 CODESIZE SUB DUP1 PUSH2 0x280 DUP4 CODECOPY DUP2 DUP2 ADD PUSH1 0x40 MSTORE PUSH1 0x40 DUP2 LT ISZERO PUSH2 0xC7 JUMPI PUSH1 0x0 DUP1 REVERT JUMPDEST DUP2 ADD SWAP1 DUP1 DUP1 MLOAD SWAP1 PUSH1 0x20 ADD SWAP1 SWAP3 SWAP2 SWAP1 DUP1 MLOAD SWAP1 PUSH1 0x20 ADD SWAP1 SWAP3 SWAP2 SWAP1 POP POP POP DUP2 PUSH1 0x0 DUP2 SWAP1 SSTORE POP DUP1 PUSH1 0x2 DUP2 SWAP1 SSTORE POP POP POP PUSH2 0x17F DUP1 PUSH2 0x101 PUSH1 0x0 CODECOPY PUSH1 0x0 RETURN INVALID PUSH1 0x80 PUSH1 0x40 MSTORE CALLVALUE DUP1 ISZERO PUSH2 0x10 JUMPI PUSH1 0x0 DUP1 REVERT JUMPDEST POP PUSH1 0x4 CALLDATASIZE LT PUSH2 0x41 JUMPI PUSH1 0x0 CALLDATALOAD PUSH1 0xE0 SHR DUP1 PUSH4 0x6102E022 EQ PUSH2 0x46 JUMPI DUP1 PUSH4 0xC3E70055 EQ PUSH2 0x94 JUMPI DUP1 PUSH4 0xE09EAA01 EQ PUSH2 0xC5 JUMPI JUMPDEST PUSH1 0x0 DUP1 REVERT JUMPDEST PUSH2 0x7C PUSH1 0x4 DUP1 CALLDATASIZE SUB PUSH1 0x40 DUP2 LT ISZERO PUSH2 0x5C JUMPI PUSH1 0x0 DUP1 REVERT JUMPDEST DUP2 ADD SWAP1 DUP1 DUP1 CALLDATALOAD SWAP1 PUSH1 0x20 ADD SWAP1 SWAP3 SWAP2 SWAP1 DUP1 CALLDATALOAD SWAP1 PUSH1 0x20 ADD SWAP1 SWAP3 SWAP2 SWAP1 POP POP POP PUSH2 0xF6 JUMP JUMPDEST PUSH1 0x40 MLOAD DUP1 DUP3 ISZERO ISZERO DUP2 MSTORE PUSH1 0x20 ADD SWAP2 POP POP PUSH1 0x40 MLOAD DUP1 SWAP2 SUB SWAP1 RETURN JUMPDEST PUSH2 0x9C PUSH2 0x123 JUMP JUMPDEST PUSH1 0x40 MLOAD DUP1 DUP3 PUSH16 0xFFFFFFFFFFFFFFFFFFFFFFFFFFFFFFFF NOT AND DUP2 MSTORE PUSH1 0x20 ADD SWAP2 POP POP PUSH1 0x40 MLOAD DUP1 SWAP2 SUB SWAP1 RETURN JUMPDEST PUSH2 0xCD PUSH2 0x136 JUMP JUMPDEST PUSH1 0x40 MLOAD DUP1 DUP3 PUSH16 0xFFFFFFFFFFFFFFFFFFFFFFFFFFFFFFFF NOT AND DUP2 MSTORE PUSH1 0x20 ADD SWAP2 POP POP PUSH1 0x40 MLOAD DUP1 SWAP2 SUB SWAP1 RETURN JUMPDEST PUSH1 0x0 DUP3 PUSH1 0x0 SLOAD EQ DUP1 ISZERO PUSH2 0x10A JUMPI POP DUP2 PUSH1 0x2 SLOAD EQ JUMPDEST ISZERO PUSH2 0x118 JUMPI PUSH1 0x1 SWAP1 POP PUSH2 0x11D JUMP JUMPDEST PUSH1 0x0 SWAP1 POP JUMPDEST SWAP3 SWAP2 POP POP JUMP JUMPDEST PUSH1 0x1 PUSH1 0x0 SWAP1 SLOAD SWAP1 PUSH2 0x100 EXP SWAP1 DIV PUSH1 0x80 SHL DUP2 JUMP JUMPDEST PUSH1 0x1 PUSH1 0x10 SWAP1 SLOAD SWAP1 PUSH2 0x100 EXP SWAP1 DIV PUSH1 0x80 SHL DUP2 JUMP INVALID LOG2 PUSH5 0x6970667358 0x22 SLT KECCAK256 SMOD SLOAD BALANCE 0xB5 0xE5 CALL SWAP7 0x2D PUSH11 0x9A659C2C73EDA9403346F 0x26 LOG2 CODESIZE 0xAC SLOAD PUSH10 0x66A3FFE4149B64736F6C PUSH4 0x4300060C STOP CALLER "
		},
		"gasEstimates": {
			"creation": {
				"codeDepositCost": "76600",
				"executionCost": "infinite",
				"totalCost": "infinite"
			},
			"external": {
				"trash()": "1050",
				"trash_second()": "1122",
				"win(bytes32,bytes32)": "1981"
			}
		},
		"methodIdentifiers": {
			"trash()": "c3e70055",
			"trash_second()": "e09eaa01",
			"win(bytes32,bytes32)": "6102e022"
		}
	},
	"abi": [
		{
			"inputs": [
				{
					"internalType": "bytes32",
					"name": "_password",
					"type": "bytes32"
				},
				{
					"internalType": "bytes32",
					"name": "_password_second",
					"type": "bytes32"
				}
			],
			"stateMutability": "nonpayable",
			"type": "constructor"
		},
		{
			"inputs": [],
			"name": "trash",
			"outputs": [
				{
					"internalType": "bytes16",
					"name": "",
					"type": "bytes16"
				}
			],
			"stateMutability": "view",
			"type": "function"
		},
		{
			"inputs": [],
			"name": "trash_second",
			"outputs": [
				{
					"internalType": "bytes16",
					"name": "",
					"type": "bytes16"
				}
			],
			"stateMutability": "view",
			"type": "function"
		},
		{
			"inputs": [
				{
					"internalType": "bytes32",
					"name": "_password",
					"type": "bytes32"
				},
				{
					"internalType": "bytes32",
					"name": "_password_second",
					"type": "bytes32"
				}
			],
			"name": "win",
			"outputs": [
				{
					"internalType": "bool",
					"name": "_win",
					"type": "bool"
				}
			],
			"stateMutability": "view",
			"type": "function"
		}
	]
}